:020000040800F2
:10000000706A00205D02000889650008993A0008BE
:1000100019630008D90B0008617C0008000000008B
:10002000000000000000000000000000D170000887
:10003000250C00080000000091650008F57000081C
:1000400077020008770200087702000877020008AC
:10005000770200087702000877020008770200089C
:10006000770200087702000877020008770200088C
:10007000DD0B0008E90B0008F50B0008770200080B
:10008000010C00080D0C0008770200087702000838
:10009000770200087702000877020008770200085C
:1000A00077020008D571000877020008770200087F
:1000B000770200087702000877020008770200083C
:1000C000770200087702000877020008770200082C
:1000D0007702000877020008497C0008557C000878
:1000E000770200087702000877020008770200080C
:1000F00077020008770200087702000877020008FC
:1001000077020008770200087702000877020008EB
:1001100077020008770200087702000877020008DB
:10012000190C00087702000877020008770200081F
:1001300077020008000000000000000077020008BD
:1001400077020008770200087702000877020008AB
:10015000770200087702000877020008770200089B
:10016000770200087702000877020008770200088B
:10017000770200087702000800000000000000007D
:10018000770200087702000800F002F800F056F845
:1001900014A696E8000CB244B344DA4501D100F04D
:1001A0004DF8BAE80F000FA696E83000A5EB04055D
:1001B00004EB0607AAEB0704A7F101074FEA1515A0
:1001C0004FEA3414A4F10104AC4201D300F036F834
:1001D00013F0010F18BFFB1A43F0010300F001F800
:1001E000DBE7184714E1000034E10000103A24BFB7
:1001F00078C878C1FAD8520724BF30C830C144BF8C
:1002000004680C6070470000704700000023002461
:1002100000250026103A28BF78C1FBD8520728BF16
:1002200030C148BF0B6070471FB50AF07AFD9DE8EA
:10023000030000F013FA1FBD10B510BD00F076FAF0
:100240001146FFF7F1FF08F003F800F094FA03B449
:10025000FFF7F2FF03BC00F03DFA000009488047B9
:1002600009480047FEE7FEE7FEE7FEE7FEE7FEE798
:10027000FEE7FEE7FEE7FEE704480549054A064BB0
:1002800070470000C1710008890100087048002013
:10029000706A0020705A0020705A002070B506461F
:1002A00000F0C0F9056806F10B0020F00704B44225
:1002B0009CBF002070BD2B466A68BAB11068A0428E
:1002C00010D304F1080188423CBF5068586007D33E
:1002D0005168101941601168091B01605860146071
:1002E000101D70BD13465268002AE7D121462846EA
:1002F00000F0A0F90028DED170BD70B50446051FDE
:1003000000F090F90068002C14BF446870BD002C08
:1003100018BFAC423CBF20466468F8D301680A1895
:10032000AA4218BF456003D12A68054611440160FE
:1003300028684119A1421CBF6C6070BD616869608A
:1003400021680844286070BD53EA020C00F06980FF
:100350002DE9F04B4FF00006002B1FBFB3FA83F5D9
:1003600003FA05F424FA05F65E4012BF1643B2FA0A
:1003700082F502FA05F4C5F120051EBF22FA05FC3C
:1003800044EA0C04203556EA044C4FEA144418BFE2
:10039000641C4FF000084FF00009904271EB030C11
:1003A00039D3002919BFB1FA81F701FA07F6B0FA7B
:1003B00080F700FA07F6C7F120071EBF20FA07FCF6
:1003C00046EA0C062037B6FBF4FCA7EB0507103F06
:1003D00007F01F0BCBF120062CFA06F60CFA0BFBEC
:1003E00044BFB3460026202FA4BF5E464FF0000B4B
:1003F0005BEA060C08BF4FF0010B19EB0B0948EB49
:100400000608ABFB027C06FB02CC0BFB03CCC01B3B
:1004100071EB0C01C1E70B46024641464846BDE878
:10042000F08B13B5084318BF4FF0FF300146AFF310
:100430000080BDE81C40704710B5431C02E010F876
:10044000011B71B18107FAD14FF0013202C88C1A39
:100450008C4314EAC211F9D0C01A0A0603D0C01E98
:1004600010BDC01A10BD0A0401D0801E10BD0902C3
:10047000FCD0401E10BD421E12F8013F002BFBD1E4
:1004800011F8013B002B02F8013BF9D17047032A18
:1004900040F2308010F0030C00F0158011F8013BA1
:1004A000BCF1020F624498BF11F801CB00F8013B88
:1004B00038BF11F8013BA2F1040298BF00F801CB4C
:1004C00038BF00F8013B11F0030300F02580083A23
:1004D000C0F0088051F8043B083A51F804CBA0E87A
:1004E0000810F5E7121D5CBF51F8043B40F8043BCF
:1004F000AFF30080D20724BF11F8013B11F801CB04
:1005000048BF11F8012B24BF00F8013B00F801CBD4
:1005100048BF00F8012B704710B5203AC0F00B809F
:10052000B1E81850A0E81850B1E81850A0E81850E9
:10053000203ABFF4F5AF5FEA027C24BFB1E818505F
:10054000A0E8185044BF18C918C0BDE810405FEAC1
:10055000827C24BF51F8043B40F8043B08BF70473D
:10056000D20728BF31F8023B48BF11F8012B28BF42
:1005700020F8023B48BF00F8012B704702F0FF0350
:1005800043EA032242EA024200F024B84FF000029C
:100590000429C0F0128010F0030C00F01B80CCF195
:1005A000040CBCF1020F18BF00F8012BA8BF20F803
:1005B000022BA1EB0C0100F00DB85FEAC17C24BF57
:1005C00000F8012B00F8012B48BF00F8012B704701
:1005D0004FF0000200B5134694469646203922BFDC
:1005E000A0E80C50A0E80C50B1F12001BFF4F7AF27
:1005F000090728BFA0E80C5048BF0CC05DF804EB09
:10060000890028BF40F8042B08BF704748BF20F876
:10061000022B11F0804F18BF00F8012B7047704774
:100620007047704700487047D000002070477047FF
:100630007047704738B504460A4600206946AFF354
:100640000080002808BF38BD02460099204600F00F
:100650004BF8012038BD012000F060B8F8B5AFF3C9
:100660000080054600200C460C2000BF0646A81955
:10067000A0420DD9324669460020AFF30080070042
:1006800008BF00F04BF80098A04218BF0546C419F7
:10069000FFF7C8FF05600746F01D20F00700461968
:1006A000284600F00AF8B44208BFF8BDA21B314644
:1006B0003868BDE8F84000F017B8002101604160DB
:1006C00070470C20704708B569468DF8000003207C
:1006D000ABBE08BD01491820ABBEFEE726000200F4
:1006E00000487047C8000020034640688C46002838
:1006F00018BF88423CBF03464068F8D318681844C6
:10070000884207D00CF1030020F00700001D411AB9
:10071000521A0146081D0A60FFF7EFBD10B500F040
:1007200039F8BDE8104000F02FB870477546FFF764
:10073000D7FFAE4605006946534620F007008546C0
:1007400018B020B5FFF798FDBDE820404FF0000637
:100750004FF000074FF000084FF0000BAC46ACE83C
:10076000C009ACE8C009ACE8C009ACE8C00921F098
:1007700007018D46704710B50446AFF30080204650
:10078000BDE81040FFF763BD002801D0FFF7A2BF0E
:100790007047000010B5012805D0002103A000F02B
:1007A00021F8012010BD09A1F8E700005349475284
:1007B000544D454D3A204F7574206F662068656131
:1007C00070206D656D6F7279000000003A204865F9
:1007D0006170206D656D6F727920636F72727570D4
:1007E0007465640070B505460C460A2000E06D1C77
:1007F000FFF769FF35B128780028F8D102E0641CC2
:10080000FFF761FF14B120780028F8D1BDE87040EF
:100810000A20FFF758BF00000146806B036C026C92
:1008200013F0500F07D0D20648BF00F005BD806B13
:10083000C26C0846104742F40071016401688A687E
:1008400012F0405F01D000F0F3BC027E002AFAD122
:10085000CA6A12F4700F02D08A685205F3D44A684B
:1008600022F020024A60016C21F480710164016C65
:10087000C90448BF00F0DCBC016C41F00101016417
:1008800000F0D6BC806B40210164416C41F0040152
:10089000416400F0D1BC0000806B00F0CBBC0000D4
:1008A00082B040F2303A40F23C1440F22C0940F25F
:1008B000343540F23D1740F23B3BC2F2000AC2F22F
:1008C0000004C2F20009C2F200050DF10706C2F2EF
:1008D0000007C2F2000B03E02178484600F082F8DE
:1008E000DAF80000214607F0D1FA0028F4D1286890
:1008F000314607F0CBFAD8B14FF0FF389DF807101A
:1009000007EB080228685170314607F0BFFA00284B
:1009100008F10108F2D19BF8020048B108F101008A
:1009200082B240F2B460C2F20000394602F022FF07
:10093000282007F0B9FCD3E710B540F22C00C2F232
:10094000000000781F2300284FF00F004FF05A01DD
:100950004FF0030208BF4FF4784300F065F940F20E
:100960003B34C2F20004607830B11E205A210322C9
:100970004FF6E07300F058F9A078002808BF10BDCA
:100980002D205A2103224FF4FC63BDE8104000F0F3
:100990004BB9000010B507F077FC40F23034C2F2DA
:1009A0000004206007F070FC226840F23431C2F28B
:1009B0000001002A086018BF0122002818BF01208A
:1009C00002EA0004012C0AD140F2B46040F239314D
:1009D000C2F20000C2F20001012202F079FE2046BC
:1009E00010BD000010B58278B2B1437940F2A42C5A
:1009F000C2F2000C0CEB0302D2788A4220D1591CBF
:100A00009CF80520CBB29342417118D14FF480710C
:100A100041800021417110BD037940F2A422C2F24D
:100A20000002D45C8C420AD1591C9278CBB293421A
:100A3000017118BF10BD012141800021017110BD5D
:100A4000827940F23B3CC2F2000C83189CF80040D3
:100A5000D971013290F867E08271D2B2ECB1152AF7
:100A600044D1C17E8E4537D140F65C51D0F8072085
:100A7000C2F200010A60B0F80F20D0F80B30D0F8B5
:100A80001140D0F817E00A81B0F815204B60C1F88A
:100A90000A40CA81C1F810E01BE0192A26D1C17FA3
:100AA0008E4519D140F62851D0F80720D0F80B30E8
:100AB000C2F20001D0F80F40D0F813E00A604B609A
:100AC000D0F81720D0F81B308C60C1F80CE00A6118
:100AD0004B6101218CF8081000210246817105202C
:100AE00082F86710BDE8104007F0DEBB714480F863
:100AF000671010BD002808BF7047F0B581B040F600
:100B0000000604460D46C4F20206002730464FF4A4
:100B10000041012201F098F8284607F0C5FB304655
:100B20004FF40041002201F08FF8284607F0BCFB8B
:100B30000137A742EAD301B0BDE8F040704700009A
:100B400040F23B32C2F20002127882B16FF0220210
:100B500052FA80F082B200EB523340F67052C2F289
:100B6000000202EBE30C23F00703C01A07E040F693
:100B70004052C2F2000202EBD00C00F007009CF8D9
:100B800000300122824023EA020201FA00F0104301
:100B90008CF800007047000040F23B31C2F20001C7
:100BA000097851B1233881B240F6705200EB5131CF
:100BB000C2F2000202EBE10105E040F64051C2F250
:100BC000000101EBD001097800F0070021FA00F0E4
:100BD00000F0010070470000FEE7000040F20C50FA
:100BE000C2F2000000F074BD40F2EC30C2F200002E
:100BF00000F06EBD40F26C50C2F2000000F068BD23
:100C000040F24C40C2F2000000F062BD40F2AC4045
:100C1000C2F2000000F05CBD40F28C30C2F2000075
:100C200000F056BD704700002DE9F04F8DB0CDE9C2
:100C30000701180A40F20008069002FB02F0C4F215
:100C4000020801904FF0FF30099300BF079905900B
:100C5000471C881A0D4608990A97C91B80B28FB2A3
:100C60000B92394602463B46049003F069FB069816
:100C700010218DF8330083464046002200F0E4FF47
:100C800040F2CC50C2F200000DF1330101224FF4CA
:100C90007A7304460E4601F047FC404610210122BB
:100CA00000F0D2FF099810218DF8330082464046AB
:100CB000002200F0C9FF2046314601224FF47A732A
:100CC00001F032FC40461021012200F0BDFF0B98DC
:100CD000394628441FFA80F948464A463B462E4684
:100CE00003F02EFB4046102100228DF833B000F0B7
:100CF000ABFF0DF133072046394601224FF47A73DA
:100D000001F012FC40461021012200F09DFF4046F8
:100D10001021002255468DF833A000F095FF2046A3
:100D2000394601224FF47A73A24601F0FDFB40469A
:100D30001021012200F088FF0A98089C0B99301AB4
:100D4000214489B287B238463A460B46039103F0F4
:100D5000F7FA4046102100228DF833B000F074FFFE
:100D60000DF133065046314601224FF47A7301F0FB
:100D7000DBFB40461021012200F066FF40461021B7
:100D800000228DF8335000F05FFF504631460122BB
:100D90004FF47A7301F0C8FB40461021012200F0A5
:100DA00053FF0B983A46201A1FFA80FA38465146EC
:100DB000534603F0C5FA069D4046102100228DF8E7
:100DC000335000F041FF40F2CC5BC2F2000B0DF15A
:100DD00033075846394601224FF47A7301F0A4FBD9
:100DE00040461021012200F02FFF099E40461021AD
:100DF00000228DF8336000F027FF58463946012263
:100E00004FF47A7301F090FB40461021012200F06C
:100E10001BFF0A9F4A46381981B248460B46029189
:100E200003F08EFA4046102100228DF8335000F076
:100E30000BFF0DF133095846494601224FF47A73EE
:100E400001F072FB40461021012200F0FDFE4046F9
:100E5000102100228DF83360344600F0F5FE58462C
:100E6000494601224FF47A7301F05EFB404610219F
:100E7000012200F0E9FE07985146384487B238460F
:100E80003A46534603F05CFA4046102100228DF8A2
:100E9000335000F0D9FE5846494601224FF47A7388
:100EA00001F042FB40461021012200F0CDFE4046F9
:100EB000102100228DF8336000F0C6FE58464946E6
:100EC00001224FF47A7301F02FFB404610210122DA
:100ED00000F0BAFE039938463A460B4603F030FA62
:100EE0004046102100228DF8335000F0ADFE5846E8
:100EF000494601224FF47A7301F016FB4046102157
:100F0000012200F0A1FE4046102100228DF833603E
:100F100000F09AFE5846494601224FF47A7301F0D8
:100F200003FB40461021012200F08EFE0498029936
:100F300002460B4603F004FA4046102100228DF8C9
:100F4000335000F081FE5846494601224FF47A732F
:100F500001F0EAFA40461021012200F075FE4046F9
:100F6000102100228DF8336000F06EFE584649468D
:100F700001224FF47A7301F0D7FA40461021012282
:100F800000F062FE0B9A059802FB02F1023000FBB2
:100F900000100199884288BF013A0A989042FFF6F2
:100FA00055AE0DB0BDE8F08F72B600BFFEE7000091
:100FB00040F23B30C2F200004FF08071016001212D
:100FC000017181710021017270470000F0B581B09C
:100FD000044640780D46002869D0E06840F294014C
:100FE000C2F20001095CA94204D1217A39B9A17881
:100FF000712904D12046294605F09EF957E0461C88
:1010000040F29400C2F20000E660FFF715FA864253
:101010004DD1A178012040F28C2E20800020702933
:10102000C2F2000EE06002D16168002957D09EF83C
:101030000010C9B20C293AD140F6BC5C40F28023C2
:10104000C2F2000CC2F20003DCF800201E785978CE
:10105000987842EA8652DF7842EA015141EA8040BC
:10106000197940EA07405A7940EA813040EA023073
:101070009979DA7940EA812011021A7A5E7A9F7AA8
:10108000DB7A41EA821141EA0611194341EA8701FC
:1010900040F640520143000CC2F20002D071080A2F
:1010A00010720020CCF8001051728EF800002078E9
:1010B00098B1A5F165000C280FD8012101FA00F0C4
:1010C00041F60101084208D000204FF48071A5705C
:1010D0006060712D218008BF207201B0F0BD9EF8C4
:1010E000001040F28022C2F200020023535401316A
:1010F0008EF800109DE7000070B581B000220092CC
:1011000090F83C20012A02D1022001B070BDD1F834
:1011100000E00122BEF10A0F1FFA8EFC80F83C208D
:1011200009D34FEA4C02036812FA8EF2A2F11E04B0
:1011300003F10C0204E003680EEB4E0403F110020D
:1011400007251668A54026EA050515608D6816680E
:1011500005FA04F4344314604968062906D801EB03
:1011600081014A1F194651F8345F0EE00C2901EB4A
:10117000810105D8A1F12302194651F8305F04E03E
:10118000A1F14102194651F82C5F1F24944025EA31
:1011900004040C600CFA02F20C6842F2043CC4F243
:1011A000010C2243ACF54174A3420A603AD1BEF16E
:1011B000120F06D1DCF8001041F48001CCF80010C9
:1011C00030E02EF0010110292CD1DCF80010BEF126
:1011D000100F41F40001CCF8001023D140F2280197
:1011E000C2F2000109684DF68362C4F21B32A1FB12
:1011F0000212910C01EB810149000091009989B123
:10120000009901390091009961B10099013900916B
:10121000009939B1009901390091009911B10099F3
:101220000139EAE7002180F83C10002001B070BDD0
:10123000704700007047000070470000002804BF9E
:101240000120704710B5016C39B9044600F0A0F8D0
:1012500020460021616484F83C10016CC9063AD430
:10126000016C41F202129143023142F204320164F4
:10127000C4F20102116821F440311160136890E852
:1012800012102343D0F810E013604A68012422F4BE
:1012900080724A604A68C0F6007442EA0E224A60D0
:1012A0004A6822F040724A604A6842EA0C024A6088
:1012B0008A6822F400628A60C2688B681A438A6076
:1012C000826A8B68A24223F070638B608B6804D1C2
:1012D00023F040520AE0012152E01A438A608A68F2
:1012E00022F040528A60C26A8B681A438A608A6818
:1012F00022F002028A608A68037E90F8204042EA67
:1013000043028A604A6884B142F400624A604A68D3
:101310004EF2000322F460424A60426ACFF6FF7345
:101320004C6803EB4232224301E022F400624A603F
:10133000CA6A40F2000C22F47002CA62C3694269B0
:10134000CFF6F07CCC6A0CEB03532343CB628B6863
:1013500023F400738B6090F830308C6844EA4323A8
:101360008B608B6823F480638B608B6843EA8222F6
:101370008A6000214164026C012363F3010202646C
:10138000002280F83C20BDE810400846704700006D
:101390002DE9F04186B0044642F200080068C4F22C
:1013A0000108002640450596CDE9036602960196A0
:1013B00002D006B0BDE8F08143F630000096C4F2DA
:1013C0000200416901AD41F4807141614169032727
:1013D00001F48071009100990096016841F00401C8
:1013E0000160016801F00401009100990096016814
:1013F00041F001010160016801F0010100910099D3
:101400000096016841F0020101600068294600F081
:101410000200009000980E20019008F56840CDE988
:10142000027600F03BFB08F560402946CDE90177E4
:10143000039600F033FB08F564402946CDE90177B7
:10144000039600F02BFB40F28C3546F21040C2F2BE
:101450000005C4F202004FF48061C5E9000605F101
:1014600010004FF400624FF400534FF480778EC0A9
:101470002846C5E90266C5E9086600F007FA0028B3
:1014800018BFFFF791FDA563AC6306B0BDE8F0811E
:10149000B0B582B00023019390F83C30012B02D10B
:1014A000022002B0B0BD8E460123016880F83C30B6
:1014B0008B689446DB0726D18B684DF6836443F036
:1014C00001038B6040F22803C2F200031B68C4F2E0
:1014D0001B34A3FB0434A30C03EB43030193019BD4
:1014E0008BB1019B013B0193019B63B1019B013BCC
:1014F0000193019B3BB1019B013B0193019B13B104
:10150000019B013BEAE78B68DB0503D58B6823F47D
:1015100080738B608C68036CE4070BD143F010017F
:10152000016400F14401002001220B681A430A60A3
:1015300002B0B0BD40F20174A34303F580730364AD
:101540004B685B0504D5036C012464F30D3303641D
:10155000046C0023E4044FF0000444BF446C24F006
:101560000604446480F83C30836B40F6190440F66E
:101570009902C0F60004C0F60002C3E90F4240F62B
:101580008502C0F60002DA646FF022020A604A683F
:1015900042F2043442F080624A608A68054642F4AE
:1015A00080728A604C31184672466346C4F2010468
:1015B00000F010FA22682968D20605D0A4F541721D
:1015C000914225D002B0B0BD42F20002C4F2010245
:1015D000914215D042F20022C4F2010291420CD095
:1015E00042F20012C4F201029142EBD12268D2060B
:1015F00006D0A4F582729142E4D12268D206E1D4E9
:1016000051F8082F12F0405FDCD14FF080428CE798
:101610004FF60451CFF6FF71615811F0405FD1D100
:10162000A4F53F714FF080427FE7000070B5866DF2
:10163000044600F00FFB94F83510022925D1054629
:101640002068216C026822F016020260426922F0D2
:101650008002426109B9A16C19B1016821F0080149
:101660000160016821F00101016000BF206800688D
:10167000C0070ED000F0EEFA401B0628F6D320205B
:101680006065032084F835000CE08020606501204F
:1016900008E0E06D3F2101FA00F0B060012084F81D
:1016A00035000020002184F8341070BD90F835100A
:1016B000022909D1052180F835100068016821F060
:1016C00001010160002070478021416501207047C1
:1016D000F0B581B00021009140F22801C2F2000172
:1016E0000B68D0E9166148F2B51537680822C1F6D3
:1016F0004E358A403A42A3FB05350CD003681C687E
:10170000640708D51C6824F004041C60B260426DB4
:1017100042F00102426501228A403A4208D0036841
:101720005B691B0604D5B260426D42F0020242655D
:1017300004228A403A4208D003681B689B0704D5FC
:10174000B260426D42F00402426510228A403A4281
:1017500016D001680B681B0712D5B2600B680A68C7
:101760005B0306D4D20506D40A6822F008020A6098
:1017700001E0110340D4016C11B1044688472046B2
:10178000C26D202101FA02F33B4242D001680F688A
:10179000FF063ED5B36090F835700B68052F1BD15E
:1017A00023F016030B604B6923F080034B61036C3D
:1017B0000BB9836C1BB10B6823F008030B603F214E
:1017C0009140B160012180F83510016D002200299F
:1017D00080F8342053D156E00A685B0310D4D20558
:1017E00012D40A6822F010020A60012180F8351034
:1017F000002180F8341007E0816C0029BDD1BFE7DB
:10180000110301D4416C00E0C16B11B1044688475B
:101810002046416DB9B3416DC9072ED0052180F82E
:1018200035100168AA0A0B6823F001030B60009BC6
:101830000133934200931AD80B68DB0717D0009B43
:1018400001339342009312D80B68DB070FD0009B43
:101850000133934200930AD80B68DB0707D0009B43
:1018600001339342009302D80B68DB07DFD10121DB
:1018700080F83510002180F83410C16C19B101B026
:10188000BDE8F040084701B0F0BD00002DE9F0418F
:10189000044600F0DFF9C4B10546022084F83500A3
:1018A0000020216884F83400086820F001000860F6
:1018B00021680868C0070BD000F0CCF9401B052850
:1018C000F6D903252023032064E00120BDE8F08140
:1018D000086848F23F02CFF21002D4E9013500EA6D
:1018E000020C04F10C0898E8C10143EA0C032B43F5
:1018F0001843D4E9072E304338431043626A40EA64
:101900000E00042A40EA08031CD1206BD4E90A2EF9
:1019100040EA0E00184308604869BEF1000F20F04D
:10192000030040EA020040F0040C11D0B8F5005F5B
:1019300035D0B8F1000F42D1022A43D0012A38D065
:1019400032B93FE00B60486920F0070040EA020C22
:1019500001F0F8004AF6AB221038CAF6AA22A0FB22
:1019600002231A094EF22C23C1F814C0C0F600035A
:101970009A5C40F2FF335F284FF03F0021EA0301F9
:1019800000FA02F088BF0431C4E91612886000230F
:1019900001250020636584F83550BDE8F081032AF5
:1019A000D6D8012540230120DFE802F0020C020313
:1019B000F0E7AEF1C070B0FA80F0400904E0032A0D
:1019C00004D3C5D1CEF300600028C1D00125402347
:1019D0000120DFE790F834C0BCF1010F04BF022002
:1019E000704770B54FF0010C80F834C0D0F858E063
:1019F00090F835C0BCF1010F37D14FF0020C80F8E0
:101A000035C04FF0000CC0F854C0D0F800C0846856
:101A1000056CC06DDCF80060402C26F48026CCF804
:101A20000060CCF804300B4604BF13460A463F2141
:101A300001FA00F0CCF80830CCF80C20CEF8080001
:101A4000DCF8000040F01600CCF800002DB1DCF806
:101A5000000040F00800CCF80000DCF8000040F086
:101A60000100CCF80000002070BD002180F8341087
:101A7000022070BDB0B5044600F0ECF8054640F217
:101A8000BC00C2F200000078611C18BF044400BF13
:101A900000F0E0F8401BA042FAD3B0BD2DE9F04FB2
:101AA00083B000F1200200F13E4741F6004500926C
:101AB00007F1FF77C4F2020508224FEAB726A842D1
:101AC00008BF072200254FF000084FF00009072E3D
:101AD00038BF4FEAB72201920AE000BF09F10109BD
:101AE00008F10208B9F1100F05F1040500F0A28019
:101AF0000F68012202FA09FE17EA0E0AEED0D1F8A9
:101B000004C003220CF003077E1E02FA08F4012E23
:101B10006FEA040B12D88468CE6804EA0B0406FA54
:101B200008F634438460446824EA0E06CCF30014BB
:101B300004FA09F42643466004E000BF032F01D1F4
:101B400003271EE0C6688C6806EA0B0604FA08F450
:101B50002643022FC66014D16FF00302009E02EAF2
:101B6000590756F807C005F01C040F220B69A24064
:101B70002CEA0202A3401A43F251D1F804C00CF03F
:101B80000307026807FA08F302EA0B021A431CF47F
:101B9000403F0260A2D0002243F644030292C4F206
:101BA00002031A6843F6004442F480421A601A683D
:101BB000C4F2010402F480420292029A29F0030264
:101BC0004FF6084C2244CFF6FF7C52F80C3005F05B
:101BD0000C070F26BE40B343019E06FA07F73B43AE
:101BE00042F80C30A2684B6842EA0A0743F60C4CF4
:101BF000DE0258BF22EA0A07A760C4F2010CDCF833
:101C000000209E0242EA0A0758BF22EA0A07CCF8DF
:101C1000007062689E0342EA0A0758BF22EA0A0778
:101C200067602268DB0342EA0A0758BF22EA0A0714
:101C3000276053E703B0BDE8F08F0000006908405B
:101C400018BF012070470000002A08BF0904816105
:101C50007047000044F29000C2F200000068704734
:101C600040F2BC0044F29001C2F20000C2F2000156
:101C700000780A68104408607047000080B543F699
:101C80000040C4F20200016841F400710160016883
:101C900041F480610160016841F4807101600320BA
:101CA00000F0BCF80F2000F005F800F057F8002015
:101CB00080BD0000B0B586B0002543F64401019513
:101CC000C4F202010A68044642F001020A6009688F
:101CD00001A801F0010101910199694600F05EF946
:101CE00000F090F94DF683614000C4F21B31A0FB77
:101CF00001014FF0FF3000EB914140F224600022DF
:101D0000C2F20000C4F2010240F2E733C0E9002150
:101D1000C0E902530561856100F078FD08B106B0A5
:101D2000B0BD40F22460C2F2000000F0DDFD0028EA
:101D3000F5D1192000F034F80F2C0CD819202146C9
:101D4000002200F03FF840F2C0010020C2F2000182
:101D50000C6006B0B0BD012006B0B0BD82B000205E
:101D600043F640010190C4F202014A6842F4804205
:101D70004A604A6802F480420192019A0090086821
:101D8000002240F08050086008680F2100F0805069
:101D9000009000986FF0010002B000F013B800004E
:101DA000002848BF704700F01F01012202FA01F12C
:101DB0001C2202EAD0004EF20012CEF20002815044
:101DC0007047000010B54EF60C5CCEF2000CDCF84B
:101DD0000030C3F3022E8EF00704042C28BF042425
:101DE000BEF103034FF0FF3E0EFA04F438BF0023A8
:101DF000A14399400EFA03F39A43114300F00F02F6
:101E000000F160430901043A03F564436244002889
:101E100048BF02F10C03197010BD00004EF60C51C2
:101E2000CEF200010A684FF6FF031A4060F30A225F
:101E300042F0806040F0FD7008607047002804BFE9
:101E4000012070472DE9F04143F60808C4F202086A
:101E50000446D8F8F8030D4600F00700884207D280
:101E600088F8F853D8F8F80300F00700A84276D1B4
:101E70002068810717D5410705D5D8F8001041F42F
:101E8000E051C8F80010010705D5D8F8001041F45A
:101E90006041C8F80010D8F80010A26821F0F001E5
:101EA0001143C8F80010C0073FD1D8F8F80300F07C
:101EB0000700A84207D988F8F853D8F8F80300F0CB
:101EC0000700A8424BD12068410707D5D8F8001079
:101ED000E26821F4E0511143C8F80010000708D56A
:101EE000D8F80000216920F4604040EAC100C8F839
:101EF000000000F09BF8D8F800104AF64652C1F3F3
:101F00000311C0F60002515C40F2280220FA01F1F0
:101F100040F2C000C2F200000068C2F2000211608C
:101F2000FFF7C8FE0020BDE8F0816068811E02292D
:101F300007D258F8081C89015CBF0120BDE8F08178
:101F400010E0012807D158F8081C89035CBF012064
:101F5000BDE8F08106E058F8081C890702D401208A
:101F6000BDE8F081D8F8001021F003010843C8F85B
:101F70000000FFF76FFE064641F28837D8F80000F0
:101F8000616800F00C00B0EB810F8ED0FFF762FEAD
:101F9000801BB842F2D90320BDE8F0810F22026015
:101FA00043F60802C4F20202136803F0030343601D
:101FB000136803F0F0038360136803F4E053C36015
:101FC000D2F800C04FF4E05303EADC030361D2F817
:101FD000F80300F0070008607047000040F2280096
:101FE00043F60801C2F20000C4F202010068096869
:101FF0004AF65652C1F38221C0F60002515CC84035
:102000007047000040F2280043F60801C2F20000C9
:10201000C4F20201006809684AF65652C1F342311F
:10202000C0F60002515CC8407047000010B543F68E
:102030000404C4F20204606800F00C0008280AD00E
:10204000042819BF42F20040C0F2F40047F64000F5
:10205000C0F27D1010BD206821682368490247F650
:102060004001C0F27D1100F03F02C3F388105CBF55
:1020700042F20041C0F2F401A1FB00010023FEF78F
:1020800063F921680222C1F3014102EB4101B0FB77
:10209000F1F010BD002804BF012070472DE9F04188
:1020A00082B00446007843F60006C007C4F2020678
:1020B0000BD0B06800F00C00042876D130688003A3
:1020C00003D56068002800F04F812078800719D57B
:1020D000B06810F00C0F07D0B06800F00C000828B2
:1020E0007DD1706840027AD43068800703D5E068FB
:1020F000012840F039813068216920F0F80040EA79
:10210000C10030602078000713D42078400726D41F
:10211000A569002D00F02481B06800F00C000828AB
:1021200040F09680012D40F0F880012002B0BDE81B
:10213000F0816069002877D00020C4F24720012197
:10214000C0F8801EFFF786FD054600BF706F800750
:10215000DBD4FFF77FFD401B0228F7D9D9E0306CB4
:102160005FEAC0080AD400200190306C40F0805033
:102170003064306C00F080500190019847F2000705
:10218000C4F200073868C00540D4386840F4807055
:102190003860FFF75FFD05463868C00536D4FFF7A5
:1021A00059FD401B0228F7D9B3E0B06800F00C00DD
:1021B000082803D1706840023FF580AF616830683D
:1021C000B1F5803F07D0B1F5A02F40F08C8040F4EE
:1021D00080203060306840F4803030608CE0E0680F
:1021E000002840F20000C4F2472054D001210160D1
:1021F000FFF730FD054600BF306880073FF57BAF35
:10220000FFF728FD401B0228F6D982E0A168306F55
:10221000012905D005294FD140F004003067306F07
:1022200040F00100306750E00020C4F24720002158
:10223000C0F8801EFFF70EFD054600BF706F8007D7
:102240007FF563AFFFF706FD401B0228F6D960E07B
:102250000027C4F2472700203866FFF7FBFC022D59
:1022600005460DD13068800140F18280FFF7F2FC15
:10227000401B02284FF00300F4D902B0BDE8F08102
:10228000306880016CD5FFF7E5FC401B02284FF059
:102290000300F5D9F1E700210160FFF7DBFC0546FB
:1022A000306880077FF52EAFFFF7D4FC401B022873
:1022B0004FF00300F4D9E0E720F001003067306F01
:1022C000002920F00400306773D0FFF7C3FC0546F7
:1022D00041F28837306F80077BD4FFF7BBFC401B8F
:1022E000B842F7D915E020F480303060306800291A
:1022F00020F48020306075D0FFF7ACFC054600BFAD
:10230000306880033FF5E1AEFFF7A4FC401B642872
:10231000F6D9032002B0BDE8F0817068E16900F4ED
:1023200080028A4220D1216A00F03F028A421BD1FA
:1023300047F6C071626A0140B1EB821F14D1A16AF5
:102340004FF6FF73C903994300F44032A1F5803181
:102350008A4209D1E16A00F07060B0EB016F03D1ED
:10236000002002B0BDE8F081012002B0BDE8F0819C
:1023700004F11C052FCD084340EA8210D9034FF623
:10238000FF729143A1F5803140EA05600843706017
:1023900001203866FFF75EFC044600BF306880010C
:1023A000DED4FFF757FC001B02284FF00300F5D9DD
:1023B00063E7FFF74FFC054641F28837306F80072F
:1023C00007D5FFF747FC401BB8424FF00300F5D993
:1023D00053E7B8F1000F3FF59BAE306C20F0805012
:1023E000306495E6FFF736FC054600BF3068800391
:1023F0007FF56BAEFFF72EFC401B64284FF0030007
:10240000F4D93AE770B528B1416A29B100210161D8
:10241000142106E0012070BD4168B1F5827F02D031
:102420001C21002242500026866290F8511029B9E2
:1024300080F85060054600F03DF82846022180F8FB
:10244000511090E82E0002F482720C6803F40443E9
:1024500024F040040C601A4405F4006305691A4432
:1024600005F0020345691A4405F001038569C46952
:102470001A4405F400731A4404F03803046A1A4439
:1024800004F08003846A1A4304F400531A430A6078
:10249000436A042202EA154203F010031A444A6018
:1024A000CA6922F40062CA610121466580F85110B0
:1024B000304670BD80B586B043F200010068C4F2BA
:1024C0000101002288420592CDE903220292019285
:1024D00001D006B080BD43F630000092C4F2020085
:1024E000436943F480534361436903F48053009389
:1024F000009B0092036843F001030360006800F052
:10250000010000900098A02001900220CDE9020275
:10251000032004900520059001F5504001A9FFF724
:10252000BDFA06B080BD00002DE9F04184B01D4623
:1025300016460F460446FFF78DFB94F8511001290B
:102540000DD18046002F4FF0010018BF002E02D1A0
:1025500004B0BDE8F08194F85000012803D10220B6
:1025600004B0BDE8F081012084F850000320002170
:1025700084F8510061652763A686E686A163A1877A
:10258000E187A0682164B0F5004F2068616407D13D
:10259000016821F040010160016841F4804101605F
:1025A0000168490603D4016841F040010160616897
:1025B000731EE268B1FA81F1B3FA83F349095B094A
:1025C000B2F5006F41EA030123D131B137F8021BA4
:1025D000C1602763E08E0138E086E08E002846D097
:1025E0006E1C09E0216B31F8022BC2602163E08E82
:1025F0000138E086E08ED0B3206881688907F1D485
:10260000FFF728FB002EF5D0A0EB0800A842F1D37D
:1026100023E039B139780173206B01302063E08EFB
:102620000138E086E08E10B36E1C0AE0216B097859
:102630000173206B01302063E08E0138E086E08E6C
:10264000A8B1206881688907F0D4FFF703FB002E4A
:10265000F5D0A0EB0800A842F1D3012084F8510086
:10266000002084F85000032004B0BDE8F08120462B
:10267000022101222B46CDF8008004F0B5FCE0B128
:10268000606D40F02000606520206065A06838B96A
:10269000002002902068C168029180680290029830
:1026A000012084F85100002084F85000606D00285B
:1026B00018BF012004B0BDE8F08140F22800C2F24A
:1026C0000000006849F68171C1F25E61A0FB010162
:1026D000480D4FF47A71484303906068B0F5827FEB
:1026E0000AD12046802100222B46CDF8008004F03C
:1026F0007BFC0028C4D1C9E703980028C6D0039802
:1027000001380390206880680006BFD50398002830
:10271000BCD0039801380390206880680006B5D5C6
:1027200003980028B2D0039801380390206880688D
:102730000006ABD503980028A8D003980138039071
:10274000206880680006D7D4A0E70000704700002A
:102750007047000090F83C20012A4FF0020252D04E
:1027600010B580F83D200268D2F804E0D2F808C025
:102770000C682EF07003234341F2FF74C4F200048E
:10278000A24253600DDC40F2FF73C4F200039A4290
:1027900015DCB2F1804F29D040F20043C4F20003AF
:1027A00022E040F2FF33C4F201039A4212DC41F608
:1027B0000003C4F200039A4218D0002312E040F64E
:1027C0000003C4F200039A4210D040F60043C4F262
:1027D000000309E044F20003C4F201039A4205D069
:1027E00040F20043C4F201039A4204D149682CF03C
:1027F0008003194391600121002280F83D1080F888
:102800003C20BDE81040104670470000002804BF7F
:102810000120704710B5044690F83D0028B900200B
:1028200084F83C00204600F01FF8022084F83D00A8
:102830002068211D04F0D4FC012084F8460084F8AF
:102840003E0084F83F0084F8400084F8410084F89A
:10285000420084F8430084F8440084F8450084F87A
:102860003D00002010BD000070B582B00446006835
:1028700040F20041C4F20001884201D002B070BDB4
:10288000002043F640010190C4F202010A6840F2C0
:10289000EC3542F002020A600A6801F5205102F0AC
:1028A00002020192019AC2F200054FF02062402319
:1028B0004FF4804685E80E0005F10C014FF4806C62
:1028C0004FF4805E81E80150C5E90660C5E9080063
:1028D0002846FEF7DBFF002818BFFEF765FB2563DF
:1028E0002562AC6302B070BD90F83D1001291CBF99
:1028F00001207047022180F83D10006841F2FF720C
:10290000C168C4F20002904241F00101C1600DDCD7
:1029100040F2FF71C4F20001884215DCB0F1804F33
:1029200029D040F20041C4F2000122E040F2FF3120
:10293000C4F20101884212DC41F60001C4F2000138
:10294000884218D0002112E040F60001C4F20001D4
:10295000884210D040F60041C4F2000109E044F280
:102960000001C4F20101884205D040F20041C4F2E6
:102970000101884206D1816801F00701062904BFE0
:1029800000207047016841F001010160002070479C
:1029900090F83C20012A4FF002026BD080B580F8FD
:1029A0003D20D0F800C04FF67772DCF8083023EAFB
:1029B0000202CCF808200B684F2B28DC1F2B44DDCB
:1029C000202B45D0302B43D0402B40F0AC80D1F8A9
:1029D00004E0C968DCF82030DCF8202022F0010295
:1029E000CCF82020DCF8182022F0F00242EA011195
:1029F00023F00A0242EA0E02CCF81810CCF820208C
:102A0000DCF8081041F0470121F0300127E06F2B7E
:102A100032DDB3F5005F73D0B3F5805F21D0702B4A
:102A200040F08180D1E901E3C968DCF8082043EA7D
:102A30000E0322F47F4243EA01211143CCF808102F
:102A4000DCF8081041F0770109E00BB1102B6AD1D6
:102A5000DCF8081021F07001194341F00701CCF8AF
:102A600008100022012180F83D10002180F83C1060
:102A7000BDE8804010467047502B21D0602B52D1CA
:102A8000D1F804E0C968DCF82030DCF8202022F01E
:102A90001002CCF82020DCF8182022F4704242EA20
:102AA000013123F0A00242EA0E12CCF81810CCF843
:102AB0002020DCF8081041F0670121F01001CEE77A
:102AC000D1F804E0C968DCF82030DCF8202022F0DE
:102AD0000102CCF82020DCF8182022F0F00242EAB3
:102AE000011123F00A0242EA0E02CCF81810CCF8C9
:102AF0002020DCF8081041F0570121F02001AEE75A
:102B0000D1E901E3C968DCF8082043EA0E0322F4A6
:102B10007F4243EA01211143CCF80810DCF8081089
:102B200041F480419BE701229CE7000070470000D0
:102B300070B504460068C5680669B10716D515F07A
:102B4000020113D06FF00201016101212177806938
:102B5000800703D02046FFF7E9FF05E0204600F09C
:102B60008DF8204600F0C6F900202077700718D5B0
:102B700015F0040015D020686FF0040101610221F6
:102B80002177806910F4407F03D02046FFF7CEFF05
:102B900005E0204600F072F8204600F0ABF9002076
:102BA0002077300717D515F0080014D020686FF093
:102BB0000801016104212177C069800703D0204604
:102BC000FFF7B4FF05E0204600F058F8204600F07B
:102BD00091F900202077F00618D515F0100015D0D7
:102BE00020686FF01001016108212177C06910F49D
:102BF000407F03D02046FFF799FF05E0204600F014
:102C00003DF8204600F076F900202077F00718BF45
:102C100015F0010002D1300609D412E020686FF0EF
:102C200001010161204600F067F9300609D515F071
:102C3000800006D020686FF0800101612046FFF718
:102C400085FD700609D515F0400006D020686FF0AC
:102C500040010161204600F059F9B00658BF70BD2F
:102C600015F0200008D021686FF0200220460A618C
:102C7000BDE87040FFF76CBD70BD000070470000FC
:102C800090F83C30012B04BF022070474FEAB2029B
:102C9000032A00F2FD802DE9F043DFE802F002AFE5
:102CA0003D7D036840F200461C6A1A6A24F0020463
:102CB00022F001021A621A46D3F804C052F818EF43
:102CC0008F6843F48065C4F20106B54244EA070404
:102CD00005D1CF6824F00C0427F004073C430F68AB
:102CE000B54206D1D1E905582CF440762E4346EA88
:102CF000080C2EF073063743C3F804C09F614F6879
:102D000009695F631C629F6947F008079F619F69BB
:102D100027F004079F61B0E0036840F200481C6A96
:102D20001A6A24F4007422F480721A621A46D3F8E4
:102D300004C052F81CEF8F6843F48065C4F20108A8
:102D4000454544EA072408D1CF6840F2FF463F02D8
:102D500024F4406427EA06063443D1F80090454540
:102D600006D1D1E905562CF440572E4347EA061CFC
:102D70002EF0730747EA0907C3F804C0DF614F6804
:102D80000969DF631C62DF6947F00807DF61DF69FB
:102D900027F00407DF6170E0036840F20045D3F8D4
:102DA00020C01A6A43F4806722F480521A621A46DD
:102DB0005C6852F81C8FD1F800E08E68C4F20105FF
:102DC000AF4204D14D6924F4804444EA85142CF4C4
:102DD000005747EA063728F4E64646EA0E265C60C6
:102DE000DE614E6809691E641F62DF6947F400678F
:102DF000DF61DF6927F48067DF613DE0036840F24F
:102E000000481C6A1A6A24F0200422F010021A6298
:102E10001A46D3F804C052F818EF8F6843F480655F
:102E2000C4F20108454544EA071407D1CF686FF0A2
:102E3000400624F0C00406EA07163443D1F8009097
:102E4000454506D1D1E905562CF440672E4347EAA3
:102E5000860C2EF4E64747EA0927C3F804C09F61B1
:102E60004F6809699F631C629F6947F400679F610F
:102E70009F6927F480679F610902136819431160F5
:102E80000021BDE8F043002280F83C20084670474E
:102E90000121F8E7002804BF0120704710B504465F
:102EA00090F83D0028B9002084F83C00204600F04E
:102EB0001FF8022084F83D002068211D04F090F9DD
:102EC000012084F8460084F83E0084F83F0084F82E
:102ED000400084F8410084F8420084F8430084F8FC
:102EE000440084F8450084F83D00002010BD000037
:102EF000704700007047000000680021C4F2010123
:102F0000884218BF7047FEF7ABBE00007047000054
:102F10007047000070470000B0B582B001680A68D1
:102F2000CC684B6902F02F05202D04F0200505D157
:102F300025B102B0BDE8B04004F0F0BC5FEA027C0D
:102F40001EBF03F0010E04F4907313EB0E0340D187
:102F5000036BD50618D5012B16D114F0100313D02E
:102F6000002201920A6801924A680192019A496915
:102F7000490649D4818DC28DC38D002B18BF914263
:102F800040F0F98102B0B0BD13062CD514F08003D7
:102F900029D090F84120212AF4D18268B2F5805FCF
:102FA00003D10269002A00F06982026A531C03629D
:102FB00012784A60C28C013A1304C284E2D1C86814
:102FC00020F08000C860C86840F04000C86002B0CF
:102FD000B0BDD30718BF14F4807340F0D7805307F7
:102FE00000F1DA80DFE05206CCD514F04002C9D0FF
:102FF000CA6822F04002CA60202180F8411002B065
:10300000BDE8B04000F020BCC26B11684B68858DF4
:1030100099B2002900F0B080A94280F0AD80C3854C
:10302000D169B1F5807F00F0A080016851E8031FED
:10303000026821F4807142E80313DBB1016851E8B2
:10304000031F026821F4807142E8031393B1016801
:1030500051E8031F026821F4807142E803134BB169
:10306000016851E8031F026821F4807142E80313EC
:10307000002BDAD1016851E8051F026821F0010137
:1030800042E80513BBB3016851E8051F026821F04F
:10309000010142E8051373B3016851E8051F026896
:1030A00021F0010142E805132BB3016851E8051F27
:1030B000026821F0010142E80513002BDAD11AE081
:1030C000016851E8051F026821F0400142E805133C
:1030D000DBB1016851E8051F026821F0400142E8B8
:1030E000051393B1016851E8051F026821F0400102
:1030F00042E805134BB1016851E8051F026821F051
:10310000400142E80513002BDAD1202180F842105B
:1031100000210163016851E8031F026821F01001DA
:1031200042E80313DBB1016851E8031F026821F094
:10313000100142E8031393B1016851E8031F0268CC
:1031400021F0100142E803134BB1016851E8031F5D
:10315000026821F0100142E80313002BDAD1C16BA1
:1031600004460846FEF762FA204602214163818D3B
:10317000C28D891A89B277E18D427FF403AFD2699B
:10318000B2F5807F7FF4FEAE02226CE1436C43F027
:1031900001034364530706D5BEF1000F03D0436C0F
:1031A00043F002034364930706D5BEF1000F03D03A
:1031B000436C43F004034364BCF1000F06D55EEAA0
:1031C000050303D0436C43F008034364436C002BB6
:1031D0003FF4D8AE920605D525B1044604F09EFB17
:1031E000216820464969426C01F0400102F0080262
:1031F000891800F0B98000BF016851E8031F026818
:1032000021F4907142E80313BBB3016851E8031F36
:10321000026821F4907142E8031373B3016851E826
:10322000031F026821F4907142E803132BB3016875
:1032300051E8031F026821F4907142E80313002B48
:10324000DAD11AE0016851E8051F026821F0010196
:1032500042E80513DBB1016851E8051F026821F05F
:10326000010142E8051393B1016851E8051F0268A6
:1032700021F0010142E805134BB1016851E8051F37
:10328000026821F0010142E80513002BDAD1016B3D
:10329000012924D1016851E8031F026821F01001BF
:1032A00042E80313DBB1016851E8031F026821F013
:1032B000100142E8031393B1016851E8031F02684B
:1032C00021F0100142E803134BB1016851E8031FDC
:1032D000026821F0100142E80313002BDAD120210B
:1032E00080F842100021016301684969490640F1F4
:1032F000C080016851E8051F026821F0400142E8E2
:103300000513DBB1016851E8051F026821F0400197
:1033100042E8051393B1016851E8051F026821F0E6
:10332000400142E805134BB1016851E8051F0268EE
:1033300021F0400142E80513002BDAD1C16B0029CE
:1033400000F0978047F26552C0F600020446084636
:103350000A65FEF7ABF900283FF414AEE06B016D8F
:1033600002B0BDE8B04008470446FFF7D3FD002097
:10337000606402B0B0BD891A026852E8032F036886
:1033800022F4907243E80325BDB3026852E8032F8C
:10339000036822F4907243E8032575B3026852E88B
:1033A000032F036822F4907243E803252DB30268CB
:1033B00052E8032F036822F4907243E80325002D9E
:1033C000DAD11AE0026852E8052F036822F0010200
:1033D00043E80525DDB1026852E8052F036822F0B5
:1033E000010243E8052595B1026852E8052F0368FC
:1033F00022F0010243E805254DB1026852E8052F8D
:10340000036822F0010243E80525002DDAD12022CD
:1034100080F8422000220263026852E8032F03680A
:1034200022F0100243E80325DDB1026852E8032FC1
:10343000036822F0100243E8032595B1026852E8C0
:10344000032F036822F0100243E803254DB1026800
:1034500052E8032F036822F0100243E80325002DF1
:10346000DAD1022289B2426302B0BDE8B040FFF770
:103470004FBD02B0BDE8B040FFF74CBD026A32F864
:10348000023B6FF35F234B60026293E5002804BFA9
:103490000120704710B5044690F8410028B900207B
:1034A00084F84000204600F021F8242084F84100F0
:1034B0002068C16821F40051C160204604F0ACFAD4
:1034C0002068016921F490410161416921F02A01DC
:1034D0004161C16841F40051C16000202021606455
:1034E00084F8411084F84210606310BD2DE9F04764
:1034F00086B00446006844F60001C4F200010026CC
:103500008842CDE90466CDE9026601966CD044F2AA
:103510000041C4F20001884240F0D68043F63000FA
:103520000096C4F20200016946F2280841F4003115
:1035300001610169C4F2020801F4003100910099AF
:103540000096016841F001010160006801A900F0E6
:103550000100009000980C2001900220CDE90206A5
:1035600003200490072005900020C4F20200FEF71B
:1035700095FA40F24C4508F16000C2F200054FF0A8
:10358000006A4FF48069C5E9000A4FF40037284605
:10359000C5E90266C5E90496C5E90666C5E9087687
:1035A000FEF774F9002818BFFDF7FEFCE563AC6375
:1035B00040F2AC4508F17800C2F200054021C5E9AF
:1035C000000A05F1080080E842022846C5E90566C0
:1035D000EE61C5E90876FEF759F900284FF0260696
:1035E00018BFFDF7E1FC65E043F630000096C4F239
:1035F0000200016946F2280841F480210161016955
:10360000C4F2020801F4802100910099009601683B
:1036100041F004010160006801A900F0040000907D
:1036200000984FF4406001900220CDE9020603208B
:103630000490072005900020C4F2020000F500600D
:10364000FEF72CFA40F20C55C2F200054FF0006A6A
:103650004FF480694FF440372846C5E9008AC5E930
:103660000266C5E90496C5E90666C5E90876FEF76F
:103670000DF9002818BFFDF797FCE563AC6340F235
:103680006C5508F13000C2F200054021C5E9000A7E
:1036900005F10800002280E806022846C5E9052257
:1036A000EA61C5E90872FEF7F1F84FF0270608B1A4
:1036B000FDF77AFC304605210022A563AC63FEF7D6
:1036C00081FB3046FEF76CFB06B0BDE8F0870000DA
:1036D00090F84230202B1CBF0220704700294FF089
:1036E000010318BF002A01D1184670470023036365
:1036F00004F002BA10B540F23B3140F2B462C2F2BB
:103700000001C2F200024978904211D181B140F229
:10371000303040F23934C2F20000C2F200040068D6
:10372000217804F0CFFB40F2B460C2F2000018E050
:1037300040F2FC62C2F20002904218D1002908BF98
:1037400010BD40F2942040F6B854C2F20000C2F21C
:1037500000040068217804F0B5FB40F2FC60C2F27E
:10376000000021460122BDE81040FFF7B1BF10BDA7
:1037700070470000B0B590F84140202C1CBF0220DB
:10378000B0BD1346024600294FF0010018BF002BC0
:1037900000D1B0BD4FF0000C212011629384D3847E
:1037A000C2F844C082F8410014681546906B47F691
:1037B000650E47F61512C0F6000EC0F60002C0E90D
:1037C0000FE247F27152C0F60002C0E9132C221D2D
:1037D000FEF700F930B110206864202085F8410020
:1037E0000120B0BD286829466FF04002026000BF8A
:1037F000086850E8050F0A6840F0800042E80503B9
:10380000FBB1086850E8050F0A6840F0800042E804
:103810000503B3B1086850E8050F0A6840F080005E
:1038200042E805036BB1086850E8050F0A6840F0EC
:10383000800042E80503002B4FF0000008BFB0BD38
:10384000D6E70020B0BD00007047000070470000C0
:103850002DE9F04F83B0FDF7ABFB03F0B7FD00F0AF
:103860000BFB00F091FF02F03FF84EF2F329C0F697
:10387000000900274FF020080A200A214A464FF687
:10388000FF73CDE90078029702F07EF90C20CDE9B4
:1038900000705BA20A202A214FF6FF73029702F004
:1038A00073F96420FEF7E6F840F23B3AC2F2000AF0
:1038B0000FF25C1B57A65AA404E000BF0C2000F0D6
:1038C000F9FB28B30B2000F0F5FB0028F6D19AF89D
:1038D00000004A4680F001018AF8001000282546C1
:1038E0004FF00A004FF00A014FF6FF7304BF5A462B
:1038F0003546CDE90078029702F046F9284602F0F5
:1039000015FE1420FEF7B6F8C820FEF7B3F8D5E789
:1039100046A002F00BFE6420FEF7ACF89AF8001007
:1039200048A045A2002908BF104602F0FFFD00F0A4
:1039300069F9022004F096F901F0D6FF40F22C0458
:10394000C2F200042046FDF725F840B301260C27FB
:10395000002543A214202D214FF6FF73CDE9005717
:10396000029602F011F940F20118A4F8008003F069
:10397000CDFC70B343A2142041214FF6FF73CDE973
:103980000057029602F000F94FF4FA70FEF772F851
:1039900001F0AAFFAAF8018003B0BDE8F08F012072
:1039A0000C210024CDE9011029A214202D214FF66D
:1039B000FF73009402F0E8F8202500BF50203A2160
:1039C00021224FF6FF73CDE90045029401F0AAFDD4
:1039D000F4E728A2142041214FF6FF73CDE90176C8
:1039E000009502F0D1F8202450204D2121224FF6DD
:1039F000FF73CDE90054029501F094FDF4E700BF98
:103A000053656C656374204D6F64652E2E2E000027
:103A100052320000526F626F744D6F64653D310029
:103A2000526F626F744D6F64653D30007061676501
:103A3000206D61696E000000636C69636B206D30FE
:103A40002C300000636C69636B206D312C300000FA
:103A50004257313620696E6974206572726F720048
:103A60004257313620696E697420737563636573DC
:103A700073000000544A4320696E697420657272B5
:103A80006F720000544A4320696E69742073756335
:103A90006365737300000000FEE700000000000093
:103AA00070B52DED028B0446C0ED000A80ED010AD1
:103AB00010EE100AB0EE608A07F0C2F8054618EE64
:103AC000100A0E4607F0BCF89FED0F0B53EC102BBD
:103AD00006F0CAFE9FED0E0B02460B4651EC100B92
:103AE00006F066FD2A46334606F0BAFC02460B464F
:103AF0002846314606F05CFD06F080FC0021C4E952
:103B00000201BDEC028B70BD182D4454FB211940FD
:103B1000000000000000F03F70B582B040F23B347E
:103B2000C2F20004A079E1794FF6FF75884203D113
:103B3000E17809B901204EE0B0B1192028211922FD
:103B40004FF6FF73FDF770F8002611200F21212298
:103B50004123009600F090FD0020202132223023E6
:103B6000009600F089FD30E0192028211922002359
:103B70000026FDF759F811200F212122412300953D
:103B800000F07AFD0020202132223023009500F041
:103B900073FD1120202121222023009600F0E6FC55
:103BA0001120302121223023009600F0DFFC11206B
:103BB000202111223023009600F0D8FC2120202162
:103BC00021223023009600F0D1FCA079E178E07149
:103BD000B1FA81F0400921796279914202D108B1AC
:103BE00002B070BD0020002908BFA5F57E7083B229
:103BF000192028210F22FDF717F82079607102B0F3
:103C000070BD00002DE9F04F81B02DED048B82B026
:103C10009FED708A40F24870B7EE009AC2F2000041
:103C2000B0EE480AF0EE490AFFF73AFF40F258704A
:103C3000C2F20000B0EE480AF0EE490AFFF730FF8A
:103C400040F26870C2F20000B0EE480AF0EE490A95
:103C5000FFF726FF40F27870C2F20000B0EE480A8B
:103C6000F0EE490AFFF71CFF40F68450C2F2000054
:103C7000B0EE480AF0EE490AFFF712FF40F6945002
:103C8000C2F20000B0EE480AF0EE490AFFF708FF62
:103C900040F2281440F24430C2F20004C2F20000A4
:103CA00021460722FDF7F4FB0128019000F08880EF
:103CB00040F2C418C2F2000898F80000411C132812
:103CC00088F800107CD840F2742940F2782A40F23B
:103CD000787640F6845740F28E2B40F69455C2F227
:103CE0000009C2F2000AC2F20006C2F20007C2F2E4
:103CF000000BC2F2000500BFA08800EE100A40F2DF
:103D00004870B8EE400AC2F2000002F019F8BDEEA9
:103D1000C00AE18810EE100AA9F8000000EE101A9F
:103D200040F25870B8EE400AC2F2000002F008F803
:103D3000BDEEC00A218910EE100AA9F8020000EEBB
:103D4000101A40F26870B8EE400AC2F2000001F0AA
:103D5000F7FF6189BDEEC00A10EE100A00EE101ADE
:103D6000AAF80000B8EE400A304601F0E9FF2188C9
:103D7000BDEEC00A10EE100A00EE101AAAF80200FA
:103D8000B8EE400A384601F0DBFF6188BDEEC00A9C
:103D900010EE100A00EE101AABF80000B8EE400A60
:103DA000284601F0CDFFBDEEC00A98F8001010EED5
:103DB000100AABF80200481C142988F800009BD3B5
:103DC0000198013818BF012002B0BDEC048B01B08E
:103DD000BDE8F08F0AD7A33C40F6705040F23B3864
:103DE00040F2BE1640F64057C2F2000040F2A42452
:103DF000C2F20008C2F20006C2F2000700F1070991
:103E000000F1090A00F10B0BC2F2000404F016F9EC
:103E100098F80600002808BF04F0AEF804F0AAF9EC
:103E200098F8000031884A4653465D46002802BF94
:103E300007F1100207F1120307F1140511807188D0
:103E4000B288198000284FF0020021462A8008BF5E
:103E5000012003F05FFF40F23431C2F20001096833
:103E6000D4F8882003460846194604F045F819207E
:103E700004F01AFACAE7000070B5BCB040F2004383
:103E8000C4F2020340223B93ADF8E8203B9940F294
:103E9000D010C2F200000160BDF8E81080248180DB
:103EA000BDF8E6104FF4807EC1803893ADF8DC4059
:103EB00038994FF4007C8160BDF8DC104FF4006548
:103EC0008181BDF8DA10C1813593ADF8D0E0359924
:103ED0000161BDF8D0108182BDF8CE10C18232934D
:103EE000ADF8C4C032998161BDF8C4108183BDF8BA
:103EF000C210C18308212F93ADF8B8102F99016229
:103F0000BDF8B8108184BDF8B610C18410212C937F
:103F1000ADF8AC102C998162BDF8AC108185BDF86C
:103F2000AA10C18520212993ADF8A0102999016319
:103F3000BDF8A0108186BDF89E10C18603F5806192
:103F40002691ADF89420269A8263BDF8942082874A
:103F5000BDF89220C2872391ADF88840239A02646D
:103F6000BDF88820A0F84420BDF88620A0F846209F
:103F7000A3F580622092ADF87C50209C8464BDF84B
:103F80007C40A0F84C40BDF87A40A0F84E404FF479
:103F900080541D92ADF870401D9C0465BDF87040C2
:103FA000A0F85440BDF86E40A0F856404FF480444D
:103FB0001A91ADF864401A9C8465BDF86440A0F87D
:103FC0005C40BDF86240A0F85E404FF40054179189
:103FD000ADF85840179C0466BDF85840A0F86440FE
:103FE000BDF85640A0F866404FF480641493ADF8D5
:103FF0004C40149E8666BDF84C60A0F86C60BDF81D
:104000004A60A0F86E601193ADF84050119B0367B1
:10401000BDF84030A0F87430BDF83E30A0F87630DE
:104020004FF400430E92ADF834300E9B8367BDF819
:104030003430A0F87C30BDF83230A0F87E300B91DF
:10404000ADF828E00B99C0F88010BDF82810A0F852
:104050008410BDF82610A0F886100892ADF81CE078
:104060000899C0F88810BDF81C10A0F88C10BDF895
:104070001A10A0F88E100592ADF810C00599C0F87E
:104080009010BDF81010A0F89410BDF80E10A0F814
:1040900096100292ADF804400299C0F89810BDF84D
:1040A0000410A0F89C10BDF80210A0F89E103CB0BF
:1040B00070BD000040F2D011C2F2000101EBC0025D
:1040C00051F830009188FDF7B9BD00002DE9F041AD
:1040D00082B004208DF807009DF8070040F2D0164A
:1040E00040F238380728C2F20006C2F2000867D84A
:1040F00040F24477C2F20007002500BF3D709DF8F2
:104100000700002206EBC00156F830008988FDF751
:104110009BFD8DF806509DF8060003283AD800BF95
:104120009DF8060006EBC00156F830008988FDF7BF
:1041300085FD9DF8061038B1481C8DF806009DF8E5
:1041400006000428ECD325E006EBC10256F8310046
:10415000918800BFFDF772FD90B998F80000411CEE
:10416000022888F800100BD8052004F09DF89DF86F
:10417000060006EBC00156F830008988EAE700BF68
:1041800088F800509DF806009DF8071000EB8100AC
:104190000F3838709DF80700012206EBC00156F871
:1041A00030008988FDF750FD3C78002C6FD19DF8D8
:1041B000070001308DF807009DF8070008289DD3FF
:1041C000374657F8380FB988FDF738FDC0B3374682
:1041D00057F8400FB988FDF731FD98B3374657F8C7
:1041E000480FB988FDF72AFD70B3374657F8500FCE
:1041F000B988FDF723FD48B3374657F8580FB988FB
:10420000FDF71CFD20B3374657F8600FB988FDF75E
:1042100015FDF8B1374657F8680FB988FDF70EFD60
:10422000D0B1374657F8700FB988FDF707FDA8B130
:1042300056F8780FB188FDF701FD88B1002426E01B
:104240000D241BE00E2419E00F2417E0102415E0C4
:10425000112413E0122411E013240FE014240DE0C4
:10426000152437460AE000BF98F80000411C0228D8
:1042700088F8001008D8052004F016F83868B988C6
:10428000FDF7DCFC0028EFD0002088F80000204675
:1042900002B0BDE8F081000040F6A45440F23B3586
:1042A000C2F20004C2F2000505E000BF02F046FEC3
:1042B0001E2003F0F9FFFFF709FF607003F09AF882
:1042C0006178A07049B1287820B1084602F002FD5B
:1042D00003E000BF084602F083FAA078E178884244
:1042E000E6D003F0BFF82978A0780029E070DDD18E
:1042F00002F0C8FBDCE7000040F23B3440F6A45576
:10430000C2F20004C2F200050F26002705E000BF3C
:1043100001F05EFC282003F0C7FFE0780028F7D00A
:10432000207818B102F01CFC02E000BF02F0ACF9EA
:1043300003F098F8AE70FCF7FFFAE770EAE70000C8
:104340002DE9F04383B00024C4F2020416468946E6
:1043500007462046402100229846FDF775FC2A209A
:104360008DF80100204610210022FDF76DFC40F27F
:10437000CC55C2F200050DF10101284601224FF48F
:104380007A73FEF7D1F8204610210122FDF75CFC7C
:10439000204640210122FDF757FC0137380A8DF8ED
:1043A0000200204610210022FDF74EFC0DF1020113
:1043B000284601224FF47A73FEF7B6F82046102102
:1043C0000122FDF741FC2046102100228DF80370E8
:1043D000FDF73AFC0DF10301284601224FF47A73F0
:1043E000FEF7A2F8204610210122FDF72DFC013630
:1043F000300A8DF80400204610210022FDF724FC2D
:1044000001A9284601224FF47A73FEF78DF8204661
:1044100010210122FDF718FC2046102100228DF802
:104420000560FDF711FC0DF10501284601224FF44E
:104430007A73FEF779F8204610210122FDF704FC7B
:10444000204640210022FDF7FFFB2B208DF80600BF
:10445000204610210022FDF7F7FB0DF1060128464A
:1044600001224FF47A73FEF75FF8204610210122F3
:10447000FDF7EAFB204640210122FDF7E5FB09F1AB
:104480000206300A8DF80700204610210022FDF7B1
:10449000DBFB0DF10701284601224FF47A73FEF78A
:1044A00043F8204610210122FDF7CEFB20461021C3
:1044B00000228DF80860FDF7C7FB02A928460122FB
:1044C0004FF47A73FEF730F8204610210122FDF7F1
:1044D000BBFB08F10206300A8DF8090020461021C6
:1044E0000022FDF7B1FB0DF10901284601224FF42E
:1044F0007A73FEF719F8204610210122FDF7A4FB7C
:104500002046102100228DF80A60FDF79DFB0DF179
:104510000A01284601224FF47A73FEF705F8204677
:1045200010210122FDF790FB204640210022FDF7DB
:104530008BFB2C208DF80B00204610210022FDF76C
:1045400083FB0DF10B01284601224FF47A73FDF72E
:10455000EBFF204610210122FDF776FB204640218B
:104560000122FDF771FB03B0BDE8F0832DE9F04FA8
:1045700087B005460C46111A521B18BF4FF0FF3288
:1045800000290E4648BF4E420129A3EB04004FF01C
:104590000107A8BF3A46191B18BF4FF0FF3100288A
:1045A000059044BF434205930128B8BF0F460598C4
:1045B000DDF840C0864288BF304640F2CC590490B6
:1045C0004FEA1C204FF000084FF0000B4FF0000A9C
:1045D000C2F200090390CDE9016200BFA8B2A1B206
:1045E00002460B46FFF7ACFE03980026C4F2020613
:1045F0008DF81A00304610210022FDF725FB4846B1
:104600000DF11A0101224FF47A73FDF78DFF304648
:1046100010210122FDF718FB109810218DF81B00C6
:1046200030460022FDF710FB48460DF11B01012228
:104630004FF47A73FDF778FF304610210122FDF721
:1046400003FBDDE901620599049B0BEB0600414485
:10465000B0EB030B0AF1010AD4BF83461544B1EB5A
:1046600003081FFA8AF0D4BF88463C448342B5D27F
:1046700007B0BDE8F08F00002DE9F04182B0DDF811
:1046800020801C460B4615460E460746CDF8008096
:10469000FFF76CFF384631463A462346CDF8008096
:1046A000FFF764FF384621462A462346CDF80080AE
:1046B000FFF75CFF284631462A462346CDF80080A6
:1046C000FFF754FF02B0BDE8F08100002DE9F04F84
:1046D00085B015460E46013A591E1C4692B28BB261
:1046E00031460290FFF72CFEA642019449D20E9863
:1046F000002440F2CC57C4F202044FEA1029C2F25F
:10470000000705E0039E01990136B0B2884238D215
:10471000029803960E9EA8420DF112080DF1130B9C
:10472000F0D2DDF808A000BF2046102100228DF84D
:104730001290FDF789FA3846414601224FF47A7308
:10474000FDF7F2FE204610210122FDF77DFA2046FA
:10475000102100228DF81360FDF776FA384659468D
:1047600001224FF47A73FDF7DFFE2046102101226B
:10477000FDF76AFA0AF1010A1FFA8AF0A842D3D3B8
:10478000C0E705B0BDE8F08F2DE9F04F81B00024FF
:10479000C4F2020404F500652846102100224FF0FF
:1047A0000009FDF751FAC820FDF764F928461021E9
:1047B0000122FDF749FAC820FDF75CF96420FDF7F6
:1047C00059F9204640210022FDF73EFA11208DF8CC
:1047D0000300204610210022FDF736FA40F2CC55A6
:1047E000C2F200050DF10301284601224FF47A734D
:1047F000FDF79AFE204610210122FDF725FA2046FA
:1048000040210122FDF720FA7820FDF733F92046F8
:1048100040210022FDF718FAB1208DF80300204650
:1048200010210022FDF710FA0DF1030128460122A4
:104830004FF47A73FDF778FE204610210122FDF730
:1048400003FA204640210122FDF7FEF905208DF8EC
:1048500003002046102100220527FDF7F5F90DF190
:104860000301284601224FF47A73FDF75DFE2046CE
:1048700010210122FDF7E8F93C26204610210022F4
:104880008DF80360FDF7E0F90DF1030128460122E0
:104890004FF47A73FDF748FE204610210122FDF700
:1048A000D3F92046102100228DF80360FDF7CCF9E2
:1048B0000DF10301284601224FF47A73FDF734FE0F
:1048C000204610210122FDF7BFF920464021002299
:1048D000FDF7BAF9B2208DF803002046102100221E
:1048E000FDF7B2F90DF10301284601224FF47A7366
:1048F000FDF71AFE204610210122FDF7A5F92046FA
:1049000040210122FDF7A0F92046102100228DF858
:1049100003700527FDF798F90DF1030128460122E0
:104920004FF47A73FDF700FE204610210122FDF7B7
:104930008BF92046102100228DF80360FDF784F9E1
:104940000DF10301284601224FF47A73FDF7ECFDC7
:10495000204610210122FDF777F920461021002280
:104960008DF80360FDF770F90DF10301284601226F
:104970004FF47A73FDF7D8FD204610210122FDF790
:1049800063F9204640210022FDF75EF9B3208DF83F
:104990000300204610210022FDF756F90DF1030116
:1049A000284601224FF47A73FDF7BEFD2046102100
:1049B0000122FDF749F9204640210122FDF744F983
:1049C0002046102100228DF803700527FDF73CF9E1
:1049D0000DF10301284601224FF47A73FDF7A4FD7F
:1049E000204610210122FDF72FF920461021002238
:1049F0008DF80360FDF728F90DF103012846012227
:104A00004FF47A73FDF790FD204610210122FDF747
:104A10001BF92046102100228DF80360FDF714F9E0
:104A20000DF10301284601224FF47A73FDF77CFD56
:104A3000204610210122FDF707F92046102100220F
:104A40008DF80370FDF700F90DF1030128460122EE
:104A50004FF47A73FDF768FD204610210122FDF71F
:104A6000F3F82046102100228DF80360FDF7ECF8E2
:104A70000DF10301284601224FF47A73FDF754FD2E
:104A8000204610210122FDF7DFF8204610210022E8
:104A90008DF80360FDF7D8F80DF1030128460122D7
:104AA0004FF47A73FDF740FD204610210122FDF7F7
:104AB000CBF8204640210022FDF7C6F8B4208DF83F
:104AC0000300204610210022FDF7BEF80DF103017E
:104AD000284601224FF47A73FDF726FD2046102167
:104AE0000122FDF7B1F8204640210122FDF7ACF884
:104AF00003208DF80300204610210022FDF7A4F8C2
:104B00000DF10301284601224FF47A73FDF70CFDE5
:104B1000204610210122FDF797F82046402100226F
:104B2000FDF792F8C0262046102100228DF8036080
:104B3000FDF78AF80DF10301284601224FF47A733C
:104B4000FDF7F2FC204610210122FDF77DF82046FA
:104B500040210122FDF778F84FF028082046102167
:104B600000228DF80380FDF76FF80DF10301284650
:104B700001224FF47A73FDF7D7FC20461021012261
:104B8000FDF762F808208DF803002046102100226E
:104B9000FDF75AF80DF10301284601224FF47A730C
:104BA000FDF7C2FC204610210122FDF74DF804203C
:104BB0008DF803002046102100224FF0040AFDF773
:104BC00043F80DF10301284601224FF47A73FDF7F3
:104BD000ABFC204610210122FDF736F8204640218B
:104BE0000022FDF731F8C1208DF803002046102186
:104BF0000022FDF729F80DF10301284601224FF4A8
:104C00007A73FDF791FC204610210122FDF71CF874
:104C1000204640210122FDF717F8204610210022EE
:104C20008DF80360FDF710F80DF10301284601220D
:104C30004FF47A73FDF778FC204610210122FDF72E
:104C400003F8204640210022FCF7FEFFC2208DF829
:104C50000300204610210022FCF7F6FF0DF10301AE
:104C6000284601224FF47A73FDF75EFC204610219E
:104C70000122FCF7E9FF204640210122FCF7E4FF76
:104C80000D208DF80300204610210022FCF7DCFFE8
:104C90000DF10301284601224FF47A73FDF744FC1D
:104CA000204610210122FCF7CFFF204610210022D0
:104CB0008DF803904FF00009FCF7C6FF0DF10301DA
:104CC000284601224FF47A73FDF72EFC204610216E
:104CD0000122FCF7B9FF204640210022FCF7B4FF77
:104CE000C3208DF80300204610210022FCF7ACFF02
:104CF0000DF10301284601224FF47A73FDF714FCED
:104D0000204610210122FCF79FFF2046402101226E
:104D1000FCF79AFF8D272046102100228DF80370A2
:104D2000FCF792FF0DF10301284601224FF47A733C
:104D3000FDF7FAFB204610210122FCF785FF2A2609
:104D40002046102100228DF80360FCF77DFF0DF155
:104D50000301284601224FF47A73FDF7E5FB204654
:104D600010210122FCF770FF204640210022FCF7B1
:104D70006BFFC4208DF80300204610210022FCF7B1
:104D800063FF0DF10301284601224FF47A73FDF70A
:104D9000CBFB204610210122FCF756FF2046402184
:104DA0000122FCF751FF2046102100228DF80370EC
:104DB000FCF74AFF0DF10301284601224FF47A73F4
:104DC000FDF7B2FB204610210122FCF73DFFEE204B
:104DD0008DF80300204610210022FCF735FF0DF16D
:104DE0000301284601224FF47A73FDF79DFB20460C
:104DF00010210122FCF728FF204640210022FCF769
:104E000023FFC5208DF80300204610210022FCF767
:104E10001BFF0DF10301284601224FF47A73FDF7C1
:104E200083FB204610210122FCF70EFF2046402183
:104E30000122FCF709FF1A208DF8030020461021FB
:104E40000022FCF701FF0DF10301284601224FF477
:104E50007A73FDF769FB204610210122FCF7F4FE6E
:104E6000204640210022FCF7EFFE36208DF803009B
:104E7000204610210022FCF7E7FE0DF10301284631
:104E800001224FF47A73FDF74FFB204610210122D7
:104E9000FCF7DAFE204640210122FCF7D5FE702007
:104EA0008DF80300204610210022FCF7CDFE0DF105
:104EB0000301284601224FF47A73FDF735FB2046A3
:104EC00010210122FCF7C0FE204640210022FCF701
:104ED000BBFEE0208DF80300204610210022FCF7E5
:104EE000B3FE0DF10301284601224FF47A73FDF75A
:104EF0001BFB204610210122FCF7A6FE2046402184
:104F00000122FCF7A1FE2046102100228DF803A00B
:104F1000FCF79AFE0DF10301284601224FF47A7343
:104F2000FDF702FB204610210122FCF78DFE222016
:104F30008DF80300204610210022FCF785FE0DF1BC
:104F40000301284601224FF47A73FDF7EDFA20465B
:104F500010210122FCF778FE07208DF8030020467F
:104F600010210022FCF770FE0DF1030128460122FA
:104F70004FF47A73FDF7D8FA204610210122FCF78E
:104F800063FE0A208DF80300204610210022FCF762
:104F90005BFE0DF10301284601224FF47A73FDF701
:104FA000C3FA204610210122FCF74EFE2E27204690
:104FB000102100228DF80370FCF746FE0DF103016D
:104FC000284601224FF47A73FDF7AEFA20461021ED
:104FD0000122FCF739FE30208DF803002046102115
:104FE0000022FCF731FE0DF10301284601224FF4A7
:104FF0007A73FDF799FA204610210122FCF724FE6E
:105000004FF0250A2046102100228DF803A0FCF75E
:105010001BFE0DF10301284601224FF47A73FDF7C0
:1050200083FA204610210122FCF70EFE20461021B3
:1050300000228DF80360FCF707FE0DF103012846FE
:1050400001224FF47A73FDF76FFA204610210122F6
:10505000FCF7FAFD2046102100228DF80380FCF7B2
:10506000F3FD0DF10301284601224FF47A73FDF799
:105070005BFA204610210122FCF7E6FD2626204699
:10508000102100228DF80360FCF7DEFD0DF1030115
:10509000284601224FF47A73FDF746FA2046102184
:1050A0000122FCF7D1FD2046102100228DF803706B
:1050B000FCF7CAFD0DF10301284601224FF47A7373
:1050C000FDF732FA204610210122FCF7BDFD3A20FF
:1050D0008DF80300204610210022FCF7B5FD0DF1EC
:1050E0000301284601224FF47A73FDF71DFA20468A
:1050F00010210122FCF7A8FD2046102100228DF886
:105100000390FCF7A1FD0DF10301284601224FF4A5
:105110007A73FDF709FA204610210122FCF794FD6D
:105120004FF0010B2046102100228DF803B0FCF750
:105130008BFD0DF10301284601224FF47A73FDF730
:10514000F3F9204610210122FCF77EFD03208DF8A3
:105150000300204610210022FCF776FD0DF103012B
:10516000284601224FF47A73FDF7DEF9204610211C
:105170000122FCF769FD4FF013092046102100229F
:105180008DF80390FCF760FD0DF103012846012224
:105190004FF47A73FDF7C8F9204610210122FCF77D
:1051A00053FD204640210022FCF74EFDE1208DF802
:1051B0000300204610210022FCF746FD0DF10301FB
:1051C000284601224FF47A73FDF7AEF920461021EC
:1051D0000122FCF739FD204640210122FCF734FD75
:1051E00004208DF803002046102100224FF004080F
:1051F000FCF72AFD0DF10301284601224FF47A73D2
:10520000FDF792F9204610210122FCF71DFD162022
:105210008DF80300204610210022FCF715FD0DF14A
:105220000301284601224FF47A73FDF77DF92046E9
:1052300010210122FCF708FD06208DF8030020460E
:1052400010210022FCF700FD0DF103012846012288
:105250004FF47A73FDF768F9204610210122FCF71C
:10526000F3FC0D208DF80300204610210022FCF7EE
:10527000EBFC0DF10301284601224FF47A73FDF790
:1052800053F9204610210122FCF7DEFC2D27204691
:10529000102100228DF80370FCF7D6FC0DF10301FC
:1052A000284601224FF47A73FDF73EF9204610217B
:1052B0000122FCF7C9FC2046102100228DF8036072
:1052C000FCF7C2FC0DF10301284601224FF47A736A
:1052D000FDF72AF9204610210122FCF7B5FC232016
:1052E0008DF80300204610210022FCF7ADFC0DF1E3
:1052F0000301284601224FF47A73FDF715F9204681
:1053000010210122FCF7A0FC2726204610210022B4
:105310008DF80360FCF798FC0DF10301284601228B
:105320004FF47A73FDF700F9204610210122FCF7B3
:105330008BFC2046102100228DF80360FCF784FCD2
:105340000DF10301284601224FF47A73FDF7ECF8C2
:10535000204610210122FCF777FC20461021002274
:105360008DF803A0FCF770FC0DF103012846012223
:105370004FF47A73FDF7D8F8204610210122FCF78C
:1053800063FC2046102100228DF80370FCF75CFCC2
:105390000DF10301284601224FF47A73FDF7C4F89A
:1053A000204610210122FCF74FFC3B208DF8030022
:1053B000204610210022FCF747FC0DF1030128468E
:1053C00001224FF47A73FDF7AFF820461021012235
:1053D000FCF73AFC00208DF8030020461021002243
:1053E000FCF732FC0DF10301284601224FF47A73D9
:1053F000FDF79AF8204610210122FCF725FC2046F3
:10540000102100228DF803B0FCF71EFC0DF1030102
:10541000284601224FF47A73FDF786F820461021C2
:105420000122FCF711FC2046102100228DF8038098
:10543000FCF70AFC0DF10301284601224FF47A73B0
:10544000FDF772F8204610210122FCF7FDFB2046F3
:10545000102100228DF80390FCF7F6FB0DF10301FB
:10546000284601224FF47A73FDF75EF8204610219A
:105470000122FCF7E9FB204640210022FCF7E4FB77
:105480003A208DF80300204610210022FCF7DCFBB7
:105490000DF10301284601224FF47A73FDF744F819
:1054A000204610210122FCF7CFFB2046402101229B
:1054B000FCF7CAFB05208DF80300204610210022CE
:1054C000FCF7C2FB0DF10301284601224FF47A7369
:1054D000FDF72AF8204610210122FCF7B5FB2046F3
:1054E00040210022FCF7B0FB29208DF80300204664
:1054F00010210022FCF7A8FB0DF103012846012230
:105500004FF47A73FDF710F8204610210122FCF7C2
:105510009BFB204640210122FCF796FB01B0BDE831
:10552000F08F00002DE9F04F8DB0179C15464FEA23
:10553000540927095FEA497209934FF0010318BF24
:1055400003EB141700EB540207FB04F6571E0A196D
:10555000531EBAB29BB207460A900F460891FEF757
:10556000EFFE002E059600F00181A4F10C00C1B2FF
:10557000800140EA9100C2B2052A00F2F7800120C2
:10558000904010F02B0F00F0F180169B0999A5F1C7
:1055900020004FEA1128190AC0B207914BF69C016E
:1055A00000EB4006C0F6000101EB061102914BF240
:1055B000AC21C0F6000101EB001101914CF66C2109
:1055C0000027039640F2CC55C0F600010A9E002346
:1055D000C4F20207C2F2000501EB80104FF0000B8D
:1055E000009004920BE000BF08980A9E01300890DA
:1055F000069B05980133049A834200F0B780032A82
:1056000006930DD0012A09D062B903984AF6386191
:10561000C0F6000101EB800005E000BF019802E048
:10562000029800E00098184404784FF0000A0AE05D
:1056300001360A99B0B2401A4845D5D00AF1010A9C
:10564000BAF1080FD4D00120189900FA0AF000EA44
:10565000040099B30028EBD00899B0B289B2024691
:105660000B46FEF76DFE3846102100228DF8328081
:10567000FCF7EAFA28460DF1320101224FF47A7361
:10568000FCF752FF384610210122FCF7DDFA099899
:1056900010218DF8330038460022FCF7D5FA284651
:1056A0000DF1330101224FF47A73FCF73DFF3846C8
:1056B00010210122FCF7C8FABAE700BFF8B138465A
:1056C000102100228DF82E80FCF7BEFA28460DF13D
:1056D0002E0101224FF47A73FCF726FF3846102181
:1056E0000122FCF7B1FA099810218DF82F003846F5
:1056F0000022FCF7A9FA28460DF12F011EE00798B9
:1057000010218DF8300038460022FCF79DFA28461B
:105710000CA901224FF47A73FCF706FF38461021DA
:105720000122FCF791FA169810218DF831003846C5
:105730000022FCF789FA28460DF1310101224FF4CD
:105740007A73FCF7F1FE384610210122FCF77CFA4F
:105750000BF1010B5FFA8BF0B0FBF9F101FB1900C3
:1057600000287FF46BAF4FF0000B41E70DB0BDE8B0
:10577000F08F00002DE9F04F81B02DED028B88B045
:10578000DDE91474B5EE400A9A469046B0EE408AC0
:105790008B460546F1EE10FA4FEA54060CDA00206B
:1057A0000290284659462D225346B1EE488A00976A
:1057B0000194FFF7B7FE3544B8F1000F00F08C807C
:1057C0009FED480A4FF0000C28EE000ABCEEC00A1C
:1057D00010EE100A4FF0000906900796059534E088
:1057E000079E049211FB063080B259462E22534682
:1057F000CDE90074CDF808C0FFF794FE049A4FF08D
:10580000000C09F1010908F10108D00800EB800043
:10581000A5EB4000059D5FFA89F111FB065140F0B0
:10582000300288B2D2B259465346CDE90074CDF861
:1058300008C0FFF777FE09F101095FFA89F05FFA06
:1058400088F14FF0000C884246D26FEA090008EB5D
:105850000001080608D0A8EB09000238C0B2AC4627
:10586000032803D201200DE0012021E001F0FC0219
:105870000023012042F210750433DEB2964205FB8C
:1058800000F0F9D111F0030165464FF0000C0FD084
:10589000012903D100EB8000400009E04FF47A7247
:1058A000424302294FF0640108BF00FB01F2104699
:1058B000069E5FFA88F22B465FFA89F1B6FBF0F597
:1058C000101F88424CF6CD40CCF6CC40A5FB000220
:1058D0003FF486AF079E98E708B0BDEC028B01B09D
:1058E000BDE8F08F00401C4680B582B04FF0000C40
:1058F00000200021A0228023CDF800C0FEF7E6FEA4
:1059000002B080BD2DE9F04F8BB0DDF858A0DDE985
:10591000149B8846064600270997089732B1B2F1D2
:10592000FF3F0FDD00210020A3B914E130464146BE
:1059300030224B46CDE900BA0297FFF7F3FD0BB0DA
:10594000BDE8F08F52422D2101208DF82010002B50
:1059500000F00181A3F1010E4CF6CD470FFA82FC55
:10596000991E5FEA0E62CCF6CC47CDF81480079101
:10597000049300F0A08003F0FE01C3F1000B0022AD
:105980005FFA8EF842F2107A069105E00232069B29
:10599000D1B2994200F09080D3B2434502D14FF08A
:1059A00001092FE007998B1ADBB2032BAEEB020340
:1059B00002D24FF001090BE003F0FC0400274FF086
:1059C000010900BF0437FDB2A54209FB0AF9F9D16C
:1059D0004CF6CD4713F00303CCF6CC4712D0012B85
:1059E00004D109EB89034FEA43090BE04FF47A71C4
:1059F00009FB01F4022B4FF0640108BF09FB01F41D
:105A0000A14600BFBCFBF9F3A3FB0745EC0804EB80
:105A10008404A3EB44032BB143F03003C4B2013040
:105A200008A90B5582EA0B03DBB2FE2B02D101233E
:105A30002EE000BF079942F00103CC1AE4B2032C18
:105A4000AEEB030402D201230AE000BF04F0FC071E
:105A5000002501230435E9B2B94203FB0AF3F9D169
:105A60004CF6CD4714F00304CCF6CC4710D0012CF3
:105A700003D103EB83014B000AE04FF47A715943E1
:105A8000022C4FF0640408BF03FB04F10B4600BF77
:105A9000BCFBF3F1A1FB0734E30803EB8303A1EBA9
:105AA0004303002B3FF472AF43F03001C3B2013027
:105AB00008ACE1546AE700220499DDF81480DDF8AF
:105AC00058A0DDE9149BC90743D0D1B25FFA8EF329
:105AD000994201D1012729E00799AEEB0203891A07
